{
  "_format": "hh-sol-artifact-1",
  "contractName": "MemeNFT",
  "sourceName": "contracts/MemeNFT.sol",
  "abi": [
    {
      "inputs": [],
      "stateMutability": "nonpayable",
      "type": "constructor"
    },
    {
      "anonymous": false,
      "inputs": [
        {
          "indexed": true,
          "internalType": "address",
          "name": "owner",
          "type": "address"
        },
        {
          "indexed": true,
          "internalType": "address",
          "name": "approved",
          "type": "address"
        },
        {
          "indexed": true,
          "internalType": "uint256",
          "name": "tokenId",
          "type": "uint256"
        }
      ],
      "name": "Approval",
      "type": "event"
    },
    {
      "anonymous": false,
      "inputs": [
        {
          "indexed": true,
          "internalType": "address",
          "name": "owner",
          "type": "address"
        },
        {
          "indexed": true,
          "internalType": "address",
          "name": "operator",
          "type": "address"
        },
        {
          "indexed": false,
          "internalType": "bool",
          "name": "approved",
          "type": "bool"
        }
      ],
      "name": "ApprovalForAll",
      "type": "event"
    },
    {
      "anonymous": false,
      "inputs": [
        {
          "indexed": true,
          "internalType": "address",
          "name": "from",
          "type": "address"
        },
        {
          "indexed": true,
          "internalType": "address",
          "name": "to",
          "type": "address"
        },
        {
          "indexed": true,
          "internalType": "uint256",
          "name": "tokenId",
          "type": "uint256"
        }
      ],
      "name": "Transfer",
      "type": "event"
    },
    {
      "anonymous": false,
      "inputs": [
        {
          "indexed": true,
          "internalType": "address",
          "name": "voter",
          "type": "address"
        },
        {
          "indexed": true,
          "internalType": "uint256",
          "name": "tokenId",
          "type": "uint256"
        }
      ],
      "name": "VoteDown",
      "type": "event"
    },
    {
      "anonymous": false,
      "inputs": [
        {
          "indexed": true,
          "internalType": "address",
          "name": "voter",
          "type": "address"
        },
        {
          "indexed": true,
          "internalType": "uint256",
          "name": "tokenId",
          "type": "uint256"
        }
      ],
      "name": "VoteUp",
      "type": "event"
    },
    {
      "inputs": [
        {
          "internalType": "address",
          "name": "to",
          "type": "address"
        },
        {
          "internalType": "uint256",
          "name": "tokenId",
          "type": "uint256"
        }
      ],
      "name": "approve",
      "outputs": [],
      "stateMutability": "nonpayable",
      "type": "function"
    },
    {
      "inputs": [
        {
          "internalType": "address",
          "name": "owner",
          "type": "address"
        }
      ],
      "name": "balanceOf",
      "outputs": [
        {
          "internalType": "uint256",
          "name": "",
          "type": "uint256"
        }
      ],
      "stateMutability": "view",
      "type": "function"
    },
    {
      "inputs": [
        {
          "internalType": "address",
          "name": "_voter",
          "type": "address"
        },
        {
          "internalType": "uint256",
          "name": "_tokenId",
          "type": "uint256"
        }
      ],
      "name": "getAddressTokenIdVote",
      "outputs": [
        {
          "internalType": "enum MemeNFT.Vote",
          "name": "",
          "type": "uint8"
        }
      ],
      "stateMutability": "view",
      "type": "function"
    },
    {
      "inputs": [
        {
          "internalType": "uint256",
          "name": "tokenId",
          "type": "uint256"
        }
      ],
      "name": "getApproved",
      "outputs": [
        {
          "internalType": "address",
          "name": "",
          "type": "address"
        }
      ],
      "stateMutability": "view",
      "type": "function"
    },
    {
      "inputs": [
        {
          "internalType": "address",
          "name": "owner",
          "type": "address"
        },
        {
          "internalType": "address",
          "name": "operator",
          "type": "address"
        }
      ],
      "name": "isApprovedForAll",
      "outputs": [
        {
          "internalType": "bool",
          "name": "",
          "type": "bool"
        }
      ],
      "stateMutability": "view",
      "type": "function"
    },
    {
      "inputs": [
        {
          "internalType": "string",
          "name": "_tokenURI",
          "type": "string"
        }
      ],
      "name": "mint",
      "outputs": [
        {
          "internalType": "uint256",
          "name": "",
          "type": "uint256"
        }
      ],
      "stateMutability": "nonpayable",
      "type": "function"
    },
    {
      "inputs": [],
      "name": "name",
      "outputs": [
        {
          "internalType": "string",
          "name": "",
          "type": "string"
        }
      ],
      "stateMutability": "view",
      "type": "function"
    },
    {
      "inputs": [
        {
          "internalType": "uint256",
          "name": "tokenId",
          "type": "uint256"
        }
      ],
      "name": "ownerOf",
      "outputs": [
        {
          "internalType": "address",
          "name": "",
          "type": "address"
        }
      ],
      "stateMutability": "view",
      "type": "function"
    },
    {
      "inputs": [
        {
          "internalType": "address",
          "name": "from",
          "type": "address"
        },
        {
          "internalType": "address",
          "name": "to",
          "type": "address"
        },
        {
          "internalType": "uint256",
          "name": "tokenId",
          "type": "uint256"
        }
      ],
      "name": "safeTransferFrom",
      "outputs": [],
      "stateMutability": "nonpayable",
      "type": "function"
    },
    {
      "inputs": [
        {
          "internalType": "address",
          "name": "from",
          "type": "address"
        },
        {
          "internalType": "address",
          "name": "to",
          "type": "address"
        },
        {
          "internalType": "uint256",
          "name": "tokenId",
          "type": "uint256"
        },
        {
          "internalType": "bytes",
          "name": "_data",
          "type": "bytes"
        }
      ],
      "name": "safeTransferFrom",
      "outputs": [],
      "stateMutability": "nonpayable",
      "type": "function"
    },
    {
      "inputs": [
        {
          "internalType": "address",
          "name": "operator",
          "type": "address"
        },
        {
          "internalType": "bool",
          "name": "approved",
          "type": "bool"
        }
      ],
      "name": "setApprovalForAll",
      "outputs": [],
      "stateMutability": "nonpayable",
      "type": "function"
    },
    {
      "inputs": [
        {
          "internalType": "bytes4",
          "name": "interfaceId",
          "type": "bytes4"
        }
      ],
      "name": "supportsInterface",
      "outputs": [
        {
          "internalType": "bool",
          "name": "",
          "type": "bool"
        }
      ],
      "stateMutability": "view",
      "type": "function"
    },
    {
      "inputs": [],
      "name": "symbol",
      "outputs": [
        {
          "internalType": "string",
          "name": "",
          "type": "string"
        }
      ],
      "stateMutability": "view",
      "type": "function"
    },
    {
      "inputs": [
        {
          "internalType": "uint256",
          "name": "index",
          "type": "uint256"
        }
      ],
      "name": "tokenByIndex",
      "outputs": [
        {
          "internalType": "uint256",
          "name": "",
          "type": "uint256"
        }
      ],
      "stateMutability": "view",
      "type": "function"
    },
    {
      "inputs": [
        {
          "internalType": "address",
          "name": "owner",
          "type": "address"
        },
        {
          "internalType": "uint256",
          "name": "index",
          "type": "uint256"
        }
      ],
      "name": "tokenOfOwnerByIndex",
      "outputs": [
        {
          "internalType": "uint256",
          "name": "",
          "type": "uint256"
        }
      ],
      "stateMutability": "view",
      "type": "function"
    },
    {
      "inputs": [
        {
          "internalType": "uint256",
          "name": "tokenId",
          "type": "uint256"
        }
      ],
      "name": "tokenURI",
      "outputs": [
        {
          "internalType": "string",
          "name": "",
          "type": "string"
        }
      ],
      "stateMutability": "view",
      "type": "function"
    },
    {
      "inputs": [],
      "name": "totalSupply",
      "outputs": [
        {
          "internalType": "uint256",
          "name": "",
          "type": "uint256"
        }
      ],
      "stateMutability": "view",
      "type": "function"
    },
    {
      "inputs": [
        {
          "internalType": "address",
          "name": "from",
          "type": "address"
        },
        {
          "internalType": "address",
          "name": "to",
          "type": "address"
        },
        {
          "internalType": "uint256",
          "name": "tokenId",
          "type": "uint256"
        }
      ],
      "name": "transferFrom",
      "outputs": [],
      "stateMutability": "nonpayable",
      "type": "function"
    },
    {
      "inputs": [
        {
          "internalType": "uint256",
          "name": "_tokenId",
          "type": "uint256"
        }
      ],
      "name": "voteDown",
      "outputs": [],
      "stateMutability": "nonpayable",
      "type": "function"
    },
    {
      "inputs": [
        {
          "internalType": "uint256",
          "name": "_tokenId",
          "type": "uint256"
        }
      ],
      "name": "voteUp",
      "outputs": [],
      "stateMutability": "nonpayable",
      "type": "function"
    }
  ],
  "bytecode": "0x60806040523480156200001157600080fd5b506040518060400160405280600781526020017f4d656d654e4654000000000000000000000000000000000000000000000000008152506040518060400160405280600481526020017f4d4e465400000000000000000000000000000000000000000000000000000000815250816000908051906020019062000096929190620000b8565b508060019080519060200190620000af929190620000b8565b505050620001cd565b828054620000c69062000197565b90600052602060002090601f016020900481019282620000ea576000855562000136565b82601f106200010557805160ff191683800117855562000136565b8280016001018555821562000136579182015b828111156200013557825182559160200191906001019062000118565b5b50905062000145919062000149565b5090565b5b80821115620001645760008160009055506001016200014a565b5090565b7f4e487b7100000000000000000000000000000000000000000000000000000000600052602260045260246000fd5b60006002820490506001821680620001b057607f821691505b60208210811415620001c757620001c662000168565b5b50919050565b61369d80620001dd6000396000f3fe608060405234801561001057600080fd5b506004361061012c5760003560e01c806370a08231116100ad578063c87b56dd11610071578063c87b56dd14610367578063d4ebc5ff14610397578063d85d3d27146103b3578063e985e9c5146103e3578063eda72b2e146104135761012c565b806370a08231146102b15780638d9d1781146102e157806395d89b4114610311578063a22cb4651461032f578063b88d4fde1461034b5761012c565b806323b872dd116100f457806323b872dd146101e95780632f745c591461020557806342842e0e146102355780634f6ccce7146102515780636352211e146102815761012c565b806301ffc9a71461013157806306fdde0314610161578063081812fc1461017f578063095ea7b3146101af57806318160ddd146101cb575b600080fd5b61014b6004803603810190610146919061222d565b61042f565b6040516101589190612275565b60405180910390f35b610169610441565b6040516101769190612329565b60405180910390f35b61019960048036038101906101949190612381565b6104d3565b6040516101a691906123ef565b60405180910390f35b6101c960048036038101906101c49190612436565b610558565b005b6101d3610670565b6040516101e09190612485565b60405180910390f35b61020360048036038101906101fe91906124a0565b61067d565b005b61021f600480360381019061021a9190612436565b6106dd565b60405161022c9190612485565b60405180910390f35b61024f600480360381019061024a91906124a0565b610782565b005b61026b60048036038101906102669190612381565b6107a2565b6040516102789190612485565b60405180910390f35b61029b60048036038101906102969190612381565b610813565b6040516102a891906123ef565b60405180910390f35b6102cb60048036038101906102c691906124f3565b6108c5565b6040516102d89190612485565b60405180910390f35b6102fb60048036038101906102f69190612436565b61097d565b6040516103089190612597565b60405180910390f35b6103196109e5565b6040516103269190612329565b60405180910390f35b610349600480360381019061034491906125de565b610a77565b005b61036560048036038101906103609190612753565b610a8d565b005b610381600480360381019061037c9190612381565b610aef565b60405161038e9190612329565b60405180910390f35b6103b160048036038101906103ac9190612381565b610b01565b005b6103cd60048036038101906103c89190612877565b610bc1565b6040516103da9190612485565b60405180910390f35b6103fd60048036038101906103f891906128c0565b610bf8565b60405161040a9190612275565b60405180910390f35b61042d60048036038101906104289190612381565b610c8c565b005b600061043a82610d4c565b9050919050565b6060600080546104509061292f565b80601f016020809104026020016040519081016040528092919081815260200182805461047c9061292f565b80156104c95780601f1061049e576101008083540402835291602001916104c9565b820191906000526020600020905b8154815290600101906020018083116104ac57829003601f168201915b5050505050905090565b60006104de82610dc6565b61051d576040517f08c379a0000000000000000000000000000000000000000000000000000000008152600401610514906129d3565b60405180910390fd5b6004600083815260200190815260200160002060009054906101000a900473ffffffffffffffffffffffffffffffffffffffff169050919050565b600061056382610813565b90508073ffffffffffffffffffffffffffffffffffffffff168373ffffffffffffffffffffffffffffffffffffffff1614156105d4576040517f08c379a00000000000000000000000000000000000000000000000000000000081526004016105cb90612a65565b60405180910390fd5b8073ffffffffffffffffffffffffffffffffffffffff166105f3610e32565b73ffffffffffffffffffffffffffffffffffffffff16148061062257506106218161061c610e32565b610bf8565b5b610661576040517f08c379a000000000000000000000000000000000000000000000000000000000815260040161065890612af7565b60405180910390fd5b61066b8383610e3a565b505050565b6000600880549050905090565b61068e610688610e32565b82610ef3565b6106cd576040517f08c379a00000000000000000000000000000000000000000000000000000000081526004016106c490612b89565b60405180910390fd5b6106d8838383610fd1565b505050565b60006106e8836108c5565b8210610729576040517f08c379a000000000000000000000000000000000000000000000000000000000815260040161072090612c1b565b60405180910390fd5b600660008473ffffffffffffffffffffffffffffffffffffffff1673ffffffffffffffffffffffffffffffffffffffff168152602001908152602001600020600083815260200190815260200160002054905092915050565b61079d83838360405180602001604052806000815250610a8d565b505050565b60006107ac610670565b82106107ed576040517f08c379a00000000000000000000000000000000000000000000000000000000081526004016107e490612cad565b60405180910390fd5b6008828154811061080157610800612ccd565b5b90600052602060002001549050919050565b6000806002600084815260200190815260200160002060009054906101000a900473ffffffffffffffffffffffffffffffffffffffff169050600073ffffffffffffffffffffffffffffffffffffffff168173ffffffffffffffffffffffffffffffffffffffff1614156108bc576040517f08c379a00000000000000000000000000000000000000000000000000000000081526004016108b390612d6e565b60405180910390fd5b80915050919050565b60008073ffffffffffffffffffffffffffffffffffffffff168273ffffffffffffffffffffffffffffffffffffffff161415610936576040517f08c379a000000000000000000000000000000000000000000000000000000000815260040161092d90612e00565b60405180910390fd5b600360008373ffffffffffffffffffffffffffffffffffffffff1673ffffffffffffffffffffffffffffffffffffffff168152602001908152602001600020549050919050565b6000600c60008473ffffffffffffffffffffffffffffffffffffffff1673ffffffffffffffffffffffffffffffffffffffff168152602001908152602001600020600083815260200190815260200160002060009054906101000a900460ff16905092915050565b6060600180546109f49061292f565b80601f0160208091040260200160405190810160405280929190818152602001828054610a209061292f565b8015610a6d5780601f10610a4257610100808354040283529160200191610a6d565b820191906000526020600020905b815481529060010190602001808311610a5057829003601f168201915b5050505050905090565b610a89610a82610e32565b8383611238565b5050565b610a9e610a98610e32565b83610ef3565b610add576040517f08c379a0000000000000000000000000000000000000000000000000000000008152600401610ad490612b89565b60405180910390fd5b610ae9848484846113a5565b50505050565b6060610afa82611401565b9050919050565b6001600c60003373ffffffffffffffffffffffffffffffffffffffff1673ffffffffffffffffffffffffffffffffffffffff168152602001908152602001600020600083815260200190815260200160002060006101000a81548160ff02191690836002811115610b7557610b74612520565b5b0217905550803373ffffffffffffffffffffffffffffffffffffffff167ffb54418a075541bd20e5e4e44bdbc01cea54f51e35d98a222395c2f0bce2e9f060405160405180910390a350565b6000610bcd600b611553565b6000610bd9600b611569565b9050610be53382611577565b610bef8184611751565b80915050919050565b6000600560008473ffffffffffffffffffffffffffffffffffffffff1673ffffffffffffffffffffffffffffffffffffffff16815260200190815260200160002060008373ffffffffffffffffffffffffffffffffffffffff1673ffffffffffffffffffffffffffffffffffffffff16815260200190815260200160002060009054906101000a900460ff16905092915050565b6002600c60003373ffffffffffffffffffffffffffffffffffffffff1673ffffffffffffffffffffffffffffffffffffffff168152602001908152602001600020600083815260200190815260200160002060006101000a81548160ff02191690836002811115610d0057610cff612520565b5b0217905550803373ffffffffffffffffffffffffffffffffffffffff167fb70a0c4fedd186110c0530f3beac037475c92de145123c2102c24293962886a560405160405180910390a350565b60007f780e9d63000000000000000000000000000000000000000000000000000000007bffffffffffffffffffffffffffffffffffffffffffffffffffffffff1916827bffffffffffffffffffffffffffffffffffffffffffffffffffffffff19161480610dbf5750610dbe826117c5565b5b9050919050565b60008073ffffffffffffffffffffffffffffffffffffffff166002600084815260200190815260200160002060009054906101000a900473ffffffffffffffffffffffffffffffffffffffff1673ffffffffffffffffffffffffffffffffffffffff1614159050919050565b600033905090565b816004600083815260200190815260200160002060006101000a81548173ffffffffffffffffffffffffffffffffffffffff021916908373ffffffffffffffffffffffffffffffffffffffff160217905550808273ffffffffffffffffffffffffffffffffffffffff16610ead83610813565b73ffffffffffffffffffffffffffffffffffffffff167f8c5be1e5ebec7d5bd14f71427d1e84f3dd0314c0f7b2291e5b200ac8c7c3b92560405160405180910390a45050565b6000610efe82610dc6565b610f3d576040517f08c379a0000000000000000000000000000000000000000000000000000000008152600401610f3490612e92565b60405180910390fd5b6000610f4883610813565b90508073ffffffffffffffffffffffffffffffffffffffff168473ffffffffffffffffffffffffffffffffffffffff161480610fb757508373ffffffffffffffffffffffffffffffffffffffff16610f9f846104d3565b73ffffffffffffffffffffffffffffffffffffffff16145b80610fc85750610fc78185610bf8565b5b91505092915050565b8273ffffffffffffffffffffffffffffffffffffffff16610ff182610813565b73ffffffffffffffffffffffffffffffffffffffff1614611047576040517f08c379a000000000000000000000000000000000000000000000000000000000815260040161103e90612f24565b60405180910390fd5b600073ffffffffffffffffffffffffffffffffffffffff168273ffffffffffffffffffffffffffffffffffffffff1614156110b7576040517f08c379a00000000000000000000000000000000000000000000000000000000081526004016110ae90612fb6565b60405180910390fd5b6110c28383836118a7565b6110cd600082610e3a565b6001600360008573ffffffffffffffffffffffffffffffffffffffff1673ffffffffffffffffffffffffffffffffffffffff168152602001908152602001600020600082825461111d9190613005565b925050819055506001600360008473ffffffffffffffffffffffffffffffffffffffff1673ffffffffffffffffffffffffffffffffffffffff16815260200190815260200160002060008282546111749190613039565b92505081905550816002600083815260200190815260200160002060006101000a81548173ffffffffffffffffffffffffffffffffffffffff021916908373ffffffffffffffffffffffffffffffffffffffff160217905550808273ffffffffffffffffffffffffffffffffffffffff168473ffffffffffffffffffffffffffffffffffffffff167fddf252ad1be2c89b69c2b068fc378daa952ba7f163c4a11628f55a4df523b3ef60405160405180910390a46112338383836118b7565b505050565b8173ffffffffffffffffffffffffffffffffffffffff168373ffffffffffffffffffffffffffffffffffffffff1614156112a7576040517f08c379a000000000000000000000000000000000000000000000000000000000815260040161129e906130db565b60405180910390fd5b80600560008573ffffffffffffffffffffffffffffffffffffffff1673ffffffffffffffffffffffffffffffffffffffff16815260200190815260200160002060008473ffffffffffffffffffffffffffffffffffffffff1673ffffffffffffffffffffffffffffffffffffffff16815260200190815260200160002060006101000a81548160ff0219169083151502179055508173ffffffffffffffffffffffffffffffffffffffff168373ffffffffffffffffffffffffffffffffffffffff167f17307eab39ab6107e8899845ad3d59bd9653f200f220920489ca2b5937696c31836040516113989190612275565b60405180910390a3505050565b6113b0848484610fd1565b6113bc848484846118bc565b6113fb576040517f08c379a00000000000000000000000000000000000000000000000000000000081526004016113f29061316d565b60405180910390fd5b50505050565b606061140c82610dc6565b61144b576040517f08c379a0000000000000000000000000000000000000000000000000000000008152600401611442906131ff565b60405180910390fd5b6000600a6000848152602001908152602001600020805461146b9061292f565b80601f01602080910402602001604051908101604052809291908181526020018280546114979061292f565b80156114e45780601f106114b9576101008083540402835291602001916114e4565b820191906000526020600020905b8154815290600101906020018083116114c757829003601f168201915b5050505050905060006114f5611a53565b905060008151141561150b57819250505061154e565b60008251111561154057808260405160200161152892919061325b565b6040516020818303038152906040529250505061154e565b61154984611a6a565b925050505b919050565b6001816000016000828254019250508190555050565b600081600001549050919050565b600073ffffffffffffffffffffffffffffffffffffffff168273ffffffffffffffffffffffffffffffffffffffff1614156115e7576040517f08c379a00000000000000000000000000000000000000000000000000000000081526004016115de906132cb565b60405180910390fd5b6115f081610dc6565b15611630576040517f08c379a000000000000000000000000000000000000000000000000000000000815260040161162790613337565b60405180910390fd5b61163c600083836118a7565b6001600360008473ffffffffffffffffffffffffffffffffffffffff1673ffffffffffffffffffffffffffffffffffffffff168152602001908152602001600020600082825461168c9190613039565b92505081905550816002600083815260200190815260200160002060006101000a81548173ffffffffffffffffffffffffffffffffffffffff021916908373ffffffffffffffffffffffffffffffffffffffff160217905550808273ffffffffffffffffffffffffffffffffffffffff16600073ffffffffffffffffffffffffffffffffffffffff167fddf252ad1be2c89b69c2b068fc378daa952ba7f163c4a11628f55a4df523b3ef60405160405180910390a461174d600083836118b7565b5050565b61175a82610dc6565b611799576040517f08c379a0000000000000000000000000000000000000000000000000000000008152600401611790906133c9565b60405180910390fd5b80600a600084815260200190815260200160002090805190602001906117c092919061211e565b505050565b60007f80ac58cd000000000000000000000000000000000000000000000000000000007bffffffffffffffffffffffffffffffffffffffffffffffffffffffff1916827bffffffffffffffffffffffffffffffffffffffffffffffffffffffff1916148061189057507f5b5e139f000000000000000000000000000000000000000000000000000000007bffffffffffffffffffffffffffffffffffffffffffffffffffffffff1916827bffffffffffffffffffffffffffffffffffffffffffffffffffffffff1916145b806118a0575061189f82611b11565b5b9050919050565b6118b2838383611b7b565b505050565b505050565b60006118dd8473ffffffffffffffffffffffffffffffffffffffff16611c8f565b15611a46578373ffffffffffffffffffffffffffffffffffffffff1663150b7a02611906610e32565b8786866040518563ffffffff1660e01b8152600401611928949392919061343e565b602060405180830381600087803b15801561194257600080fd5b505af192505050801561197357506040513d601f19601f82011682018060405250810190611970919061349f565b60015b6119f6573d80600081146119a3576040519150601f19603f3d011682016040523d82523d6000602084013e6119a8565b606091505b506000815114156119ee576040517f08c379a00000000000000000000000000000000000000000000000000000000081526004016119e59061316d565b60405180910390fd5b805181602001fd5b63150b7a0260e01b7bffffffffffffffffffffffffffffffffffffffffffffffffffffffff1916817bffffffffffffffffffffffffffffffffffffffffffffffffffffffff191614915050611a4b565b600190505b949350505050565b606060405180602001604052806000815250905090565b6060611a7582610dc6565b611ab4576040517f08c379a0000000000000000000000000000000000000000000000000000000008152600401611aab9061353e565b60405180910390fd5b6000611abe611a53565b90506000815111611ade5760405180602001604052806000815250611b09565b80611ae884611cb2565b604051602001611af992919061325b565b6040516020818303038152906040525b915050919050565b60007f01ffc9a7000000000000000000000000000000000000000000000000000000007bffffffffffffffffffffffffffffffffffffffffffffffffffffffff1916827bffffffffffffffffffffffffffffffffffffffffffffffffffffffff1916149050919050565b611b86838383611e13565b600073ffffffffffffffffffffffffffffffffffffffff168373ffffffffffffffffffffffffffffffffffffffff161415611bc957611bc481611e18565b611c08565b8173ffffffffffffffffffffffffffffffffffffffff168373ffffffffffffffffffffffffffffffffffffffff1614611c0757611c068382611e61565b5b5b600073ffffffffffffffffffffffffffffffffffffffff168273ffffffffffffffffffffffffffffffffffffffff161415611c4b57611c4681611fce565b611c8a565b8273ffffffffffffffffffffffffffffffffffffffff168273ffffffffffffffffffffffffffffffffffffffff1614611c8957611c88828261209f565b5b5b505050565b6000808273ffffffffffffffffffffffffffffffffffffffff163b119050919050565b60606000821415611cfa576040518060400160405280600181526020017f30000000000000000000000000000000000000000000000000000000000000008152509050611e0e565b600082905060005b60008214611d2c578080611d159061355e565b915050600a82611d2591906135d6565b9150611d02565b60008167ffffffffffffffff811115611d4857611d47612628565b5b6040519080825280601f01601f191660200182016040528015611d7a5781602001600182028036833780820191505090505b5090505b60008514611e0757600182611d939190613005565b9150600a85611da29190613607565b6030611dae9190613039565b60f81b818381518110611dc457611dc3612ccd565b5b60200101907effffffffffffffffffffffffffffffffffffffffffffffffffffffffffffff1916908160001a905350600a85611e0091906135d6565b9450611d7e565b8093505050505b919050565b505050565b6008805490506009600083815260200190815260200160002081905550600881908060018154018082558091505060019003906000526020600020016000909190919091505550565b60006001611e6e846108c5565b611e789190613005565b9050600060076000848152602001908152602001600020549050818114611f5d576000600660008673ffffffffffffffffffffffffffffffffffffffff1673ffffffffffffffffffffffffffffffffffffffff168152602001908152602001600020600084815260200190815260200160002054905080600660008773ffffffffffffffffffffffffffffffffffffffff1673ffffffffffffffffffffffffffffffffffffffff168152602001908152602001600020600084815260200190815260200160002081905550816007600083815260200190815260200160002081905550505b6007600084815260200190815260200160002060009055600660008573ffffffffffffffffffffffffffffffffffffffff1673ffffffffffffffffffffffffffffffffffffffff16815260200190815260200160002060008381526020019081526020016000206000905550505050565b60006001600880549050611fe29190613005565b905060006009600084815260200190815260200160002054905060006008838154811061201257612011612ccd565b5b90600052602060002001549050806008838154811061203457612033612ccd565b5b90600052602060002001819055508160096000838152602001908152602001600020819055506009600085815260200190815260200160002060009055600880548061208357612082613638565b5b6001900381819060005260206000200160009055905550505050565b60006120aa836108c5565b905081600660008573ffffffffffffffffffffffffffffffffffffffff1673ffffffffffffffffffffffffffffffffffffffff168152602001908152602001600020600083815260200190815260200160002081905550806007600084815260200190815260200160002081905550505050565b82805461212a9061292f565b90600052602060002090601f01602090048101928261214c5760008555612193565b82601f1061216557805160ff1916838001178555612193565b82800160010185558215612193579182015b82811115612192578251825591602001919060010190612177565b5b5090506121a091906121a4565b5090565b5b808211156121bd5760008160009055506001016121a5565b5090565b6000604051905090565b600080fd5b600080fd5b60007fffffffff0000000000000000000000000000000000000000000000000000000082169050919050565b61220a816121d5565b811461221557600080fd5b50565b60008135905061222781612201565b92915050565b600060208284031215612243576122426121cb565b5b600061225184828501612218565b91505092915050565b60008115159050919050565b61226f8161225a565b82525050565b600060208201905061228a6000830184612266565b92915050565b600081519050919050565b600082825260208201905092915050565b60005b838110156122ca5780820151818401526020810190506122af565b838111156122d9576000848401525b50505050565b6000601f19601f8301169050919050565b60006122fb82612290565b612305818561229b565b93506123158185602086016122ac565b61231e816122df565b840191505092915050565b6000602082019050818103600083015261234381846122f0565b905092915050565b6000819050919050565b61235e8161234b565b811461236957600080fd5b50565b60008135905061237b81612355565b92915050565b600060208284031215612397576123966121cb565b5b60006123a58482850161236c565b91505092915050565b600073ffffffffffffffffffffffffffffffffffffffff82169050919050565b60006123d9826123ae565b9050919050565b6123e9816123ce565b82525050565b600060208201905061240460008301846123e0565b92915050565b612413816123ce565b811461241e57600080fd5b50565b6000813590506124308161240a565b92915050565b6000806040838503121561244d5761244c6121cb565b5b600061245b85828601612421565b925050602061246c8582860161236c565b9150509250929050565b61247f8161234b565b82525050565b600060208201905061249a6000830184612476565b92915050565b6000806000606084860312156124b9576124b86121cb565b5b60006124c786828701612421565b93505060206124d886828701612421565b92505060406124e98682870161236c565b9150509250925092565b600060208284031215612509576125086121cb565b5b600061251784828501612421565b91505092915050565b7f4e487b7100000000000000000000000000000000000000000000000000000000600052602160045260246000fd5b600381106125605761255f612520565b5b50565b60008190506125718261254f565b919050565b600061258182612563565b9050919050565b61259181612576565b82525050565b60006020820190506125ac6000830184612588565b92915050565b6125bb8161225a565b81146125c657600080fd5b50565b6000813590506125d8816125b2565b92915050565b600080604083850312156125f5576125f46121cb565b5b600061260385828601612421565b9250506020612614858286016125c9565b9150509250929050565b600080fd5b600080fd5b7f4e487b7100000000000000000000000000000000000000000000000000000000600052604160045260246000fd5b612660826122df565b810181811067ffffffffffffffff8211171561267f5761267e612628565b5b80604052505050565b60006126926121c1565b905061269e8282612657565b919050565b600067ffffffffffffffff8211156126be576126bd612628565b5b6126c7826122df565b9050602081019050919050565b82818337600083830152505050565b60006126f66126f1846126a3565b612688565b90508281526020810184848401111561271257612711612623565b5b61271d8482856126d4565b509392505050565b600082601f83011261273a5761273961261e565b5b813561274a8482602086016126e3565b91505092915050565b6000806000806080858703121561276d5761276c6121cb565b5b600061277b87828801612421565b945050602061278c87828801612421565b935050604061279d8782880161236c565b925050606085013567ffffffffffffffff8111156127be576127bd6121d0565b5b6127ca87828801612725565b91505092959194509250565b600067ffffffffffffffff8211156127f1576127f0612628565b5b6127fa826122df565b9050602081019050919050565b600061281a612815846127d6565b612688565b90508281526020810184848401111561283657612835612623565b5b6128418482856126d4565b509392505050565b600082601f83011261285e5761285d61261e565b5b813561286e848260208601612807565b91505092915050565b60006020828403121561288d5761288c6121cb565b5b600082013567ffffffffffffffff8111156128ab576128aa6121d0565b5b6128b784828501612849565b91505092915050565b600080604083850312156128d7576128d66121cb565b5b60006128e585828601612421565b92505060206128f685828601612421565b9150509250929050565b7f4e487b7100000000000000000000000000000000000000000000000000000000600052602260045260246000fd5b6000600282049050600182168061294757607f821691505b6020821081141561295b5761295a612900565b5b50919050565b7f4552433732313a20617070726f76656420717565727920666f72206e6f6e657860008201527f697374656e7420746f6b656e0000000000000000000000000000000000000000602082015250565b60006129bd602c8361229b565b91506129c882612961565b604082019050919050565b600060208201905081810360008301526129ec816129b0565b9050919050565b7f4552433732313a20617070726f76616c20746f2063757272656e74206f776e6560008201527f7200000000000000000000000000000000000000000000000000000000000000602082015250565b6000612a4f60218361229b565b9150612a5a826129f3565b604082019050919050565b60006020820190508181036000830152612a7e81612a42565b9050919050565b7f4552433732313a20617070726f76652063616c6c6572206973206e6f74206f7760008201527f6e6572206e6f7220617070726f76656420666f7220616c6c0000000000000000602082015250565b6000612ae160388361229b565b9150612aec82612a85565b604082019050919050565b60006020820190508181036000830152612b1081612ad4565b9050919050565b7f4552433732313a207472616e736665722063616c6c6572206973206e6f74206f60008201527f776e6572206e6f7220617070726f766564000000000000000000000000000000602082015250565b6000612b7360318361229b565b9150612b7e82612b17565b604082019050919050565b60006020820190508181036000830152612ba281612b66565b9050919050565b7f455243373231456e756d657261626c653a206f776e657220696e646578206f7560008201527f74206f6620626f756e6473000000000000000000000000000000000000000000602082015250565b6000612c05602b8361229b565b9150612c1082612ba9565b604082019050919050565b60006020820190508181036000830152612c3481612bf8565b9050919050565b7f455243373231456e756d657261626c653a20676c6f62616c20696e646578206f60008201527f7574206f6620626f756e64730000000000000000000000000000000000000000602082015250565b6000612c97602c8361229b565b9150612ca282612c3b565b604082019050919050565b60006020820190508181036000830152612cc681612c8a565b9050919050565b7f4e487b7100000000000000000000000000000000000000000000000000000000600052603260045260246000fd5b7f4552433732313a206f776e657220717565727920666f72206e6f6e657869737460008201527f656e7420746f6b656e0000000000000000000000000000000000000000000000602082015250565b6000612d5860298361229b565b9150612d6382612cfc565b604082019050919050565b60006020820190508181036000830152612d8781612d4b565b9050919050565b7f4552433732313a2062616c616e636520717565727920666f7220746865207a6560008201527f726f206164647265737300000000000000000000000000000000000000000000602082015250565b6000612dea602a8361229b565b9150612df582612d8e565b604082019050919050565b60006020820190508181036000830152612e1981612ddd565b9050919050565b7f4552433732313a206f70657261746f7220717565727920666f72206e6f6e657860008201527f697374656e7420746f6b656e0000000000000000000000000000000000000000602082015250565b6000612e7c602c8361229b565b9150612e8782612e20565b604082019050919050565b60006020820190508181036000830152612eab81612e6f565b9050919050565b7f4552433732313a207472616e736665722066726f6d20696e636f72726563742060008201527f6f776e6572000000000000000000000000000000000000000000000000000000602082015250565b6000612f0e60258361229b565b9150612f1982612eb2565b604082019050919050565b60006020820190508181036000830152612f3d81612f01565b9050919050565b7f4552433732313a207472616e7366657220746f20746865207a65726f2061646460008201527f7265737300000000000000000000000000000000000000000000000000000000602082015250565b6000612fa060248361229b565b9150612fab82612f44565b604082019050919050565b60006020820190508181036000830152612fcf81612f93565b9050919050565b7f4e487b7100000000000000000000000000000000000000000000000000000000600052601160045260246000fd5b60006130108261234b565b915061301b8361234b565b92508282101561302e5761302d612fd6565b5b828203905092915050565b60006130448261234b565b915061304f8361234b565b9250827fffffffffffffffffffffffffffffffffffffffffffffffffffffffffffffffff0382111561308457613083612fd6565b5b828201905092915050565b7f4552433732313a20617070726f766520746f2063616c6c657200000000000000600082015250565b60006130c560198361229b565b91506130d08261308f565b602082019050919050565b600060208201905081810360008301526130f4816130b8565b9050919050565b7f4552433732313a207472616e7366657220746f206e6f6e20455243373231526560008201527f63656976657220696d706c656d656e7465720000000000000000000000000000602082015250565b600061315760328361229b565b9150613162826130fb565b604082019050919050565b600060208201905081810360008301526131868161314a565b9050919050565b7f45524337323155524953746f726167653a2055524920717565727920666f722060008201527f6e6f6e6578697374656e7420746f6b656e000000000000000000000000000000602082015250565b60006131e960318361229b565b91506131f48261318d565b604082019050919050565b60006020820190508181036000830152613218816131dc565b9050919050565b600081905092915050565b600061323582612290565b61323f818561321f565b935061324f8185602086016122ac565b80840191505092915050565b6000613267828561322a565b9150613273828461322a565b91508190509392505050565b7f4552433732313a206d696e7420746f20746865207a65726f2061646472657373600082015250565b60006132b560208361229b565b91506132c08261327f565b602082019050919050565b600060208201905081810360008301526132e4816132a8565b9050919050565b7f4552433732313a20746f6b656e20616c7265616479206d696e74656400000000600082015250565b6000613321601c8361229b565b915061332c826132eb565b602082019050919050565b6000602082019050818103600083015261335081613314565b9050919050565b7f45524337323155524953746f726167653a2055524920736574206f66206e6f6e60008201527f6578697374656e7420746f6b656e000000000000000000000000000000000000602082015250565b60006133b3602e8361229b565b91506133be82613357565b604082019050919050565b600060208201905081810360008301526133e2816133a6565b9050919050565b600081519050919050565b600082825260208201905092915050565b6000613410826133e9565b61341a81856133f4565b935061342a8185602086016122ac565b613433816122df565b840191505092915050565b600060808201905061345360008301876123e0565b61346060208301866123e0565b61346d6040830185612476565b818103606083015261347f8184613405565b905095945050505050565b60008151905061349981612201565b92915050565b6000602082840312156134b5576134b46121cb565b5b60006134c38482850161348a565b91505092915050565b7f4552433732314d657461646174613a2055524920717565727920666f72206e6f60008201527f6e6578697374656e7420746f6b656e0000000000000000000000000000000000602082015250565b6000613528602f8361229b565b9150613533826134cc565b604082019050919050565b600060208201905081810360008301526135578161351b565b9050919050565b60006135698261234b565b91507fffffffffffffffffffffffffffffffffffffffffffffffffffffffffffffffff82141561359c5761359b612fd6565b5b600182019050919050565b7f4e487b7100000000000000000000000000000000000000000000000000000000600052601260045260246000fd5b60006135e18261234b565b91506135ec8361234b565b9250826135fc576135fb6135a7565b5b828204905092915050565b60006136128261234b565b915061361d8361234b565b92508261362d5761362c6135a7565b5b828206905092915050565b7f4e487b7100000000000000000000000000000000000000000000000000000000600052603160045260246000fdfea2646970667358221220368bf70b279e203bc2b2ca246d14fd3e863fd25a54f2ac70baa8700942a5116064736f6c63430008090033",
  "linkReferences": {},
  "deployedLinkReferences": {}
}